{
  "contractName": "Meeting",
  "abi": [
    {
      "constant": true,
      "inputs": [
        {
          "name": "",
          "type": "bytes32"
        }
      ],
      "name": "meetups",
      "outputs": [
        {
          "name": "",
          "type": "uint8"
        }
      ],
      "payable": false,
      "stateMutability": "view",
      "type": "function"
    },
    {
      "constant": true,
      "inputs": [
        {
          "name": "",
          "type": "bytes32"
        }
      ],
      "name": "events",
      "outputs": [
        {
          "name": "cid",
          "type": "bytes"
        },
        {
          "name": "isCanceled",
          "type": "bool"
        }
      ],
      "payable": false,
      "stateMutability": "view",
      "type": "function"
    },
    {
      "constant": true,
      "inputs": [
        {
          "name": "",
          "type": "bytes32"
        }
      ],
      "name": "attendees",
      "outputs": [
        {
          "name": "",
          "type": "uint8"
        }
      ],
      "payable": false,
      "stateMutability": "view",
      "type": "function"
    },
    {
      "anonymous": false,
      "inputs": [
        {
          "indexed": false,
          "name": "url",
          "type": "string"
        },
        {
          "indexed": false,
          "name": "cid",
          "type": "bytes"
        }
      ],
      "name": "MeetupCreated",
      "type": "event"
    },
    {
      "anonymous": false,
      "inputs": [
        {
          "indexed": false,
          "name": "url",
          "type": "string"
        },
        {
          "indexed": false,
          "name": "attendee",
          "type": "address"
        }
      ],
      "name": "MeetupRSVPee",
      "type": "event"
    },
    {
      "constant": false,
      "inputs": [
        {
          "name": "url",
          "type": "string"
        },
        {
          "name": "cid",
          "type": "bytes"
        }
      ],
      "name": "rsvpForEvent",
      "outputs": [],
      "payable": false,
      "stateMutability": "nonpayable",
      "type": "function"
    },
    {
      "constant": false,
      "inputs": [
        {
          "name": "url",
          "type": "string"
        }
      ],
      "name": "rsvpForEvent",
      "outputs": [],
      "payable": false,
      "stateMutability": "nonpayable",
      "type": "function"
    },
    {
      "constant": true,
      "inputs": [
        {
          "name": "url",
          "type": "string"
        },
        {
          "name": "identity",
          "type": "address"
        }
      ],
      "name": "isAttending",
      "outputs": [
        {
          "name": "attending",
          "type": "bool"
        }
      ],
      "payable": false,
      "stateMutability": "view",
      "type": "function"
    },
    {
      "constant": true,
      "inputs": [
        {
          "name": "url",
          "type": "string"
        }
      ],
      "name": "isAttending",
      "outputs": [
        {
          "name": "attending",
          "type": "bool"
        }
      ],
      "payable": false,
      "stateMutability": "view",
      "type": "function"
    },
    {
      "constant": true,
      "inputs": [
        {
          "name": "id",
          "type": "bytes32"
        }
      ],
      "name": "getAttendees",
      "outputs": [
        {
          "name": "attendants",
          "type": "address[]"
        }
      ],
      "payable": false,
      "stateMutability": "view",
      "type": "function"
    },
    {
      "constant": true,
      "inputs": [
        {
          "name": "url",
          "type": "string"
        }
      ],
      "name": "getAttendees",
      "outputs": [
        {
          "name": "attendants",
          "type": "address[]"
        }
      ],
      "payable": false,
      "stateMutability": "view",
      "type": "function"
    },
    {
      "constant": true,
      "inputs": [
        {
          "name": "id",
          "type": "bytes32"
        }
      ],
      "name": "isRegistered",
      "outputs": [
        {
          "name": "registered",
          "type": "bool"
        }
      ],
      "payable": false,
      "stateMutability": "view",
      "type": "function"
    },
    {
      "constant": true,
      "inputs": [
        {
          "name": "url",
          "type": "string"
        }
      ],
      "name": "isRegistered",
      "outputs": [
        {
          "name": "registered",
          "type": "bool"
        }
      ],
      "payable": false,
      "stateMutability": "view",
      "type": "function"
    },
    {
      "constant": true,
      "inputs": [
        {
          "name": "id",
          "type": "bytes32"
        }
      ],
      "name": "countAttendees",
      "outputs": [
        {
          "name": "users",
          "type": "uint256"
        }
      ],
      "payable": false,
      "stateMutability": "view",
      "type": "function"
    },
    {
      "constant": true,
      "inputs": [
        {
          "name": "url",
          "type": "string"
        }
      ],
      "name": "countAttendees",
      "outputs": [
        {
          "name": "users",
          "type": "uint256"
        }
      ],
      "payable": false,
      "stateMutability": "view",
      "type": "function"
    }
  ],
  "bytecode": "0x608060405234801561001057600080fd5b50611993806100206000396000f3fe608060405234801561001057600080fd5b50600436106100cf5760003560e01c80636077cd271161008c578063c822d7f011610066578063c822d7f0146106fd578063dbe54abf146107d0578063ee373b64146108a3578063f56fbf1f1461095e576100cf565b80636077cd27146104485780637dce41fb1461053b578063bfdc4a611461064b576100cf565b80630d00c492146100d45780630ead920c146101575780631f202dd91461019f57806327258b22146101e1578063293e97f114610227578063345ead8a146102f6575b600080fd5b610100600480360360208110156100ea57600080fd5b81019080803590602001909291905050506109a6565b6040518080602001828103825283818151815260200191508051906020019060200280838360005b83811015610143578082015181840152602081019050610128565b505050509050019250505060405180910390f35b6101836004803603602081101561016d57600080fd5b8101908080359060200190929190505050610aae565b604051808260ff1660ff16815260200191505060405180910390f35b6101cb600480360360208110156101b557600080fd5b8101908080359060200190929190505050610ace565b6040518082815260200191505060405180910390f35b61020d600480360360208110156101f757600080fd5b8101908080359060200190929190505050610afb565b604051808215151515815260200191505060405180910390f35b6102e06004803603602081101561023d57600080fd5b810190808035906020019064010000000081111561025a57600080fd5b82018360208201111561026c57600080fd5b8035906020019184600183028401116401000000008311171561028e57600080fd5b91908080601f016020809104026020016040519081016040528093929190818152602001838380828437600081840152601f19601f820116905080830192505050505050509192919290505050610b2a565b6040518082815260200191505060405180910390f35b6104466004803603604081101561030c57600080fd5b810190808035906020019064010000000081111561032957600080fd5b82018360208201111561033b57600080fd5b8035906020019184600183028401116401000000008311171561035d57600080fd5b91908080601f016020809104026020016040519081016040528093929190818152602001838380828437600081840152601f19601f820116905080830192505050505050509192919290803590602001906401000000008111156103c057600080fd5b8201836020820111156103d257600080fd5b803590602001918460018302840111640100000000831117156103f457600080fd5b91908080601f016020809104026020016040519081016040528093929190818152602001838380828437600081840152601f19601f820116905080830192505050505050509192919290505050610bcc565b005b6105216004803603604081101561045e57600080fd5b810190808035906020019064010000000081111561047b57600080fd5b82018360208201111561048d57600080fd5b803590602001918460018302840111640100000000831117156104af57600080fd5b91908080601f016020809104026020016040519081016040528093929190818152602001838380828437600081840152601f19601f820116905080830192505050505050509192919290803573ffffffffffffffffffffffffffffffffffffffff169060200190929190505050611159565b604051808215151515815260200191505060405180910390f35b6105f46004803603602081101561055157600080fd5b810190808035906020019064010000000081111561056e57600080fd5b82018360208201111561058057600080fd5b803590602001918460018302840111640100000000831117156105a257600080fd5b91908080601f016020809104026020016040519081016040528093929190818152602001838380828437600081840152601f19601f82011690508083019250505050505050919291929050505061124d565b6040518080602001828103825283818151815260200191508051906020019060200280838360005b8381101561063757808201518184015260208101905061061c565b505050509050019250505060405180910390f35b6106776004803603602081101561066157600080fd5b81019080803590602001909291905050506112f0565b604051808060200183151515158152602001828103825284818151815260200191508051906020019080838360005b838110156106c15780820151818401526020810190506106a6565b50505050905090810190601f1680156106ee5780820380516001836020036101000a031916815260200191505b50935050505060405180910390f35b6107b66004803603602081101561071357600080fd5b810190808035906020019064010000000081111561073057600080fd5b82018360208201111561074257600080fd5b8035906020019184600183028401116401000000008311171561076457600080fd5b91908080601f016020809104026020016040519081016040528093929190818152602001838380828437600081840152601f19601f8201169050808301925050505050505091929192905050506113b9565b604051808215151515815260200191505060405180910390f35b610889600480360360208110156107e657600080fd5b810190808035906020019064010000000081111561080357600080fd5b82018360208201111561081557600080fd5b8035906020019184600183028401116401000000008311171561083757600080fd5b91908080601f016020809104026020016040519081016040528093929190818152602001838380828437600081840152601f19601f82011690508083019250505050505050919291929050505061145b565b604051808215151515815260200191505060405180910390f35b61095c600480360360208110156108b957600080fd5b81019080803590602001906401000000008111156108d657600080fd5b8201836020820111156108e857600080fd5b8035906020019184600183028401116401000000008311171561090a57600080fd5b91908080601f016020809104026020016040519081016040528093929190818152602001838380828437600081840152601f19601f82011690508083019250505050505050919291929050505061146e565b005b61098a6004803603602081101561097457600080fd5b81019080803590602001909291905050506117d5565b604051808260ff1660ff16815260200191505060405180910390f35b606060006001600084815260200190815260200160002060009054906101000a900460ff1660ff161115610a7557600080838152602001908152602001600020600001805480602002602001604051908101604052809291908181526020018280548015610a6957602002820191906000526020600020905b8160009054906101000a900473ffffffffffffffffffffffffffffffffffffffff1673ffffffffffffffffffffffffffffffffffffffff1681526020019060010190808311610a1f575b50505050509050610aa9565b6000604051908082528060200260200182016040528015610aa55781602001602082028038833980820191505090505b5090505b919050565b60016020528060005260406000206000915054906101000a900460ff1681565b60006001600083815260200190815260200160002060009054906101000a900460ff1660ff169050919050565b6000806001600084815260200190815260200160002060009054906101000a900460ff1660ff16119050919050565b600080826040516020018080602001828103825283818151815260200191508051906020019080838360005b83811015610b71578082015181840152602081019050610b56565b50505050905090810190601f168015610b9e5780820380516001836020036101000a031916815260200191505b5092505050604051602081830303815290604052805190602001209050610bc481610ace565b915050919050565b6000826040516020018080602001828103825283818151815260200191508051906020019080838360005b83811015610c12578082015181840152602081019050610bf7565b50505050905090810190601f168015610c3f5780820380516001836020036101000a031916815260200191505b5092505050604051602081830303815290604052805190602001209050600180600083815260200190815260200160002060009054906101000a900460ff16016001600083815260200190815260200160002060006101000a81548160ff021916908360ff160217905550600180600083815260200190815260200160002060009054906101000a900460ff1660ff161115610d53576000808281526020019081526020016000206000013390806001815401808255809150509060018203906000526020600020016000909192909190916101000a81548173ffffffffffffffffffffffffffffffffffffffff021916908373ffffffffffffffffffffffffffffffffffffffff16021790555050610f93565b60405180606001604052806000604051908082528060200260200182016040528015610d8e5781602001602082028038833980820191505090505b508152602001838152602001600015158152506000808381526020019081526020016000206000820151816000019080519060200190610dcf9291906117f5565b506020820151816001019080519060200190610dec92919061187f565b5060408201518160020160006101000a81548160ff0219169083151502179055509050506000808281526020019081526020016000206000013390806001815401808255809150509060018203906000526020600020016000909192909190916101000a81548173ffffffffffffffffffffffffffffffffffffffff021916908373ffffffffffffffffffffffffffffffffffffffff160217905550507f73778ca5ce1bd43416d5cf6387a7e5a509350e5c56a1b0c4422ecdcf634320dc8383604051808060200180602001838103835285818151815260200191508051906020019080838360005b83811015610ef0578082015181840152602081019050610ed5565b50505050905090810190601f168015610f1d5780820380516001836020036101000a031916815260200191505b50838103825284818151815260200191508051906020019080838360005b83811015610f56578082015181840152602081019050610f3b565b50505050905090810190601f168015610f835780820380516001836020036101000a031916815260200191505b5094505050505060405180910390a15b6000833360405160200180806020018373ffffffffffffffffffffffffffffffffffffffff1673ffffffffffffffffffffffffffffffffffffffff168152602001828103825284818151815260200191508051906020019080838360005b8381101561100c578082015181840152602081019050610ff1565b50505050905090810190601f1680156110395780820380516001836020036101000a031916815260200191505b509350505050604051602081830303815290604052805190602001209050600280600083815260200190815260200160002060006101000a81548160ff021916908360ff1602179055507f697bb7273cf4c42ca2cdc08f835d784ad2d0ebfb4f7c7483f51b700b9362f4a0843360405180806020018373ffffffffffffffffffffffffffffffffffffffff1673ffffffffffffffffffffffffffffffffffffffff168152602001828103825284818151815260200191508051906020019080838360005b838110156111185780820151818401526020810190506110fd565b50505050905090810190601f1680156111455780820380516001836020036101000a031916815260200191505b50935050505060405180910390a150505050565b600080838360405160200180806020018373ffffffffffffffffffffffffffffffffffffffff1673ffffffffffffffffffffffffffffffffffffffff168152602001828103825284818151815260200191508051906020019080838360005b838110156111d35780820151818401526020810190506111b8565b50505050905090810190601f1680156112005780820380516001836020036101000a031916815260200191505b509350505050604051602081830303815290604052805190602001209050600280600083815260200190815260200160002060009054906101000a900460ff1660ff161491505092915050565b60606000826040516020018080602001828103825283818151815260200191508051906020019080838360005b8381101561129557808201518184015260208101905061127a565b50505050905090810190601f1680156112c25780820380516001836020036101000a031916815260200191505b50925050506040516020818303038152906040528051906020012090506112e8816109a6565b915050919050565b6000602052806000526040600020600091509050806001018054600181600116156101000203166002900480601f01602080910402602001604051908101604052809291908181526020018280546001816001161561010002031660029004801561139c5780601f106113715761010080835404028352916020019161139c565b820191906000526020600020905b81548152906001019060200180831161137f57829003601f168201915b5050505050908060020160009054906101000a900460ff16905082565b600080826040516020018080602001828103825283818151815260200191508051906020019080838360005b838110156114005780820151818401526020810190506113e5565b50505050905090810190601f16801561142d5780820380516001836020036101000a031916815260200191505b509250505060405160208183030381529060405280519060200120905061145381610afb565b915050919050565b60006114678233611159565b9050919050565b6000816040516020018080602001828103825283818151815260200191508051906020019080838360005b838110156114b4578082015181840152602081019050611499565b50505050905090810190601f1680156114e15780820380516001836020036101000a031916815260200191505b509250505060405160208183030381529060405280519060200120905060006001600083815260200190815260200160002060009054906101000a900460ff1660ff1611611597576040517f08c379a00000000000000000000000000000000000000000000000000000000081526004018080602001828103825260208152602001807f6d6565747570206e6565647320746f206265206372656174656420666972737481525060200191505060405180910390fd5b6000808281526020019081526020016000206000013390806001815401808255809150509060018203906000526020600020016000909192909190916101000a81548173ffffffffffffffffffffffffffffffffffffffff021916908373ffffffffffffffffffffffffffffffffffffffff160217905550506000823360405160200180806020018373ffffffffffffffffffffffffffffffffffffffff1673ffffffffffffffffffffffffffffffffffffffff168152602001828103825284818151815260200191508051906020019080838360005b8381101561168957808201518184015260208101905061166e565b50505050905090810190601f1680156116b65780820380516001836020036101000a031916815260200191505b509350505050604051602081830303815290604052805190602001209050600280600083815260200190815260200160002060006101000a81548160ff021916908360ff1602179055507f697bb7273cf4c42ca2cdc08f835d784ad2d0ebfb4f7c7483f51b700b9362f4a0833360405180806020018373ffffffffffffffffffffffffffffffffffffffff1673ffffffffffffffffffffffffffffffffffffffff168152602001828103825284818151815260200191508051906020019080838360005b8381101561179557808201518184015260208101905061177a565b50505050905090810190601f1680156117c25780820380516001836020036101000a031916815260200191505b50935050505060405180910390a1505050565b60026020528060005260406000206000915054906101000a900460ff1681565b82805482825590600052602060002090810192821561186e579160200282015b8281111561186d5782518260006101000a81548173ffffffffffffffffffffffffffffffffffffffff021916908373ffffffffffffffffffffffffffffffffffffffff16021790555091602001919060010190611815565b5b50905061187b91906118ff565b5090565b828054600181600116156101000203166002900490600052602060002090601f016020900481019282601f106118c057805160ff19168380011785556118ee565b828001600101855582156118ee579182015b828111156118ed5782518255916020019190600101906118d2565b5b5090506118fb9190611942565b5090565b61193f91905b8082111561193b57600081816101000a81549073ffffffffffffffffffffffffffffffffffffffff021916905550600101611905565b5090565b90565b61196491905b80821115611960576000816000905550600101611948565b5090565b9056fea165627a7a72305820da67c6804c761d4337d8c64be675f28ec0d89e89e9a7c9d9fe6f62523cb22f560029",
  "source": "pragma solidity ^0.5.8;\n\ncontract Meeting {\n\n  struct EventStruct {\n    address[] rsvps;\n    bytes cid;\n\n    bool isCanceled;\n  }\n\n  mapping(bytes32 => EventStruct) public events;\n\n  mapping(bytes32 => uint8) public meetups;\n  mapping(bytes32 => uint8) public attendees;\n\n  event MeetupCreated(string url, bytes cid);\n  event MeetupRSVPee(string url, address attendee);\n\n  function rsvpForEvent(string memory url, bytes memory cid) public {\n    bytes32 id = keccak256(abi.encode(url));\n\n    meetups[id] = meetups[id] + 1; // useful for count and cheap existence check\n\n    if (meetups[id] > 1) {\n      events[id].rsvps.push(msg.sender);\n    } else {\n      events[id] = EventStruct(new address[](0), cid, false); // useful for detail information\n      events[id].rsvps.push(msg.sender);\n\n      emit MeetupCreated(url, cid);\n    }\n\n    bytes32 attend = keccak256(abi.encode(url, msg.sender));\n    attendees[attend] = 2; // code for attending\n\n    emit MeetupRSVPee(url, msg.sender);\n  }\n\n  function rsvpForEvent(string memory url) public {\n    bytes32 id = keccak256(abi.encode(url));\n    require(meetups[id] > 0, \"meetup needs to be created first\");\n\n    events[id].rsvps.push(msg.sender);\n\n    bytes32 attend = keccak256(abi.encode(url, msg.sender));\n    attendees[attend] = 2;\n\n    emit MeetupRSVPee(url, msg.sender);\n  }\n\n  function isAttending(string memory url) public view returns (bool attending) {\n    attending = isAttending(url, msg.sender);\n  }\n\n  function isAttending(string memory url, address identity) public view returns (bool attending) {\n    bytes32 attend = keccak256(abi.encode(url, identity));\n    attending = attendees[attend] == 2;\n  }\n\n  function getAttendees(bytes32 id) public view returns (address[] memory attendants) {\n    if (meetups[id] > 0) {\n      attendants = events[id].rsvps;\n    } else {\n      attendants = new address[](0);\n    }\n  }\n\n  function getAttendees(string memory url) public view returns (address[] memory attendants) {\n    bytes32 id = keccak256(abi.encode(url));\n    attendants = getAttendees(id);\n  }\n\n  function isRegistered(bytes32 id) public view returns (bool registered) {\n      registered = meetups[id] > 0;\n  }\n\n  function isRegistered(string memory url) public view returns (bool registered) {\n    bytes32 id = keccak256(abi.encode(url));\n    registered = isRegistered(id);\n  }\n\n  function countAttendees(bytes32  id) public view returns (uint users) {\n    users = meetups[id];\n  }\n\n  function countAttendees(string memory url) public view returns (uint users) {\n    bytes32 id = keccak256(abi.encode(url));\n    users = countAttendees(id);\n  }\n}\n",
  "sourcePath": "/Users/sebastian/bounty/Team-21/contracts/contracts/Meeting.sol",
  "compiler": {
    "name": "solc",
    "version": "0.5.8+commit.23d335f2.Emscripten.clang"
  },
  "schemaVersion": "3.0.11",
  "updatedAt": "2019-10-19T23:12:04.400Z",
  "devdoc": {
    "methods": {}
  },
  "userdoc": {
    "methods": {}
  }
}