{
  "contractName": "Meeting",
  "abi": [
    {
      "constant": true,
      "inputs": [
        {
          "name": "",
          "type": "bytes32"
        }
      ],
      "name": "meetups",
      "outputs": [
        {
          "name": "",
          "type": "uint8"
        }
      ],
      "payable": false,
      "stateMutability": "view",
      "type": "function"
    },
    {
      "constant": true,
      "inputs": [
        {
          "name": "",
          "type": "bytes32"
        }
      ],
      "name": "events",
      "outputs": [
        {
          "name": "isRegistered",
          "type": "bool"
        },
        {
          "name": "isCanceled",
          "type": "bool"
        }
      ],
      "payable": false,
      "stateMutability": "view",
      "type": "function"
    },
    {
      "constant": true,
      "inputs": [
        {
          "name": "",
          "type": "bytes32"
        }
      ],
      "name": "attendees",
      "outputs": [
        {
          "name": "",
          "type": "uint8"
        }
      ],
      "payable": false,
      "stateMutability": "view",
      "type": "function"
    },
    {
      "anonymous": false,
      "inputs": [
        {
          "indexed": false,
          "name": "url",
          "type": "string"
        }
      ],
      "name": "MeetupCreated",
      "type": "event"
    },
    {
      "constant": false,
      "inputs": [
        {
          "name": "url",
          "type": "string"
        }
      ],
      "name": "rsvpForEvent",
      "outputs": [],
      "payable": false,
      "stateMutability": "nonpayable",
      "type": "function"
    },
    {
      "constant": true,
      "inputs": [
        {
          "name": "url",
          "type": "string"
        }
      ],
      "name": "getAttendees",
      "outputs": [
        {
          "name": "attendants",
          "type": "address[]"
        }
      ],
      "payable": false,
      "stateMutability": "view",
      "type": "function"
    },
    {
      "constant": true,
      "inputs": [
        {
          "name": "url",
          "type": "string"
        }
      ],
      "name": "isRegistered",
      "outputs": [
        {
          "name": "registered",
          "type": "bool"
        }
      ],
      "payable": false,
      "stateMutability": "view",
      "type": "function"
    },
    {
      "constant": false,
      "inputs": [
        {
          "name": "url",
          "type": "string"
        }
      ],
      "name": "naiveAttention",
      "outputs": [],
      "payable": false,
      "stateMutability": "nonpayable",
      "type": "function"
    },
    {
      "constant": true,
      "inputs": [
        {
          "name": "url",
          "type": "string"
        }
      ],
      "name": "doesAttend",
      "outputs": [
        {
          "name": "isAttending",
          "type": "bool"
        }
      ],
      "payable": false,
      "stateMutability": "view",
      "type": "function"
    },
    {
      "constant": true,
      "inputs": [
        {
          "name": "url",
          "type": "string"
        }
      ],
      "name": "count",
      "outputs": [
        {
          "name": "users",
          "type": "uint256"
        }
      ],
      "payable": false,
      "stateMutability": "view",
      "type": "function"
    }
  ],
  "bytecode": "0x608060405234801561001057600080fd5b506111a3806100206000396000f3fe608060405234801561001057600080fd5b50600436106100935760003560e01c8063aa9248b411610066578063aa9248b41461037a578063bfdc4a611461044d578063c822d7f01461049e578063ee373b6414610571578063f56fbf1f1461062c57610093565b80630dc641e6146100985780630ead920c146101675780637dce41fb146101af5780639887204e146102bf575b600080fd5b610151600480360360208110156100ae57600080fd5b81019080803590602001906401000000008111156100cb57600080fd5b8201836020820111156100dd57600080fd5b803590602001918460018302840111640100000000831117156100ff57600080fd5b91908080601f016020809104026020016040519081016040528093929190818152602001838380828437600081840152601f19601f820116905080830192505050505050509192919290505050610674565b6040518082815260200191505060405180910390f35b6101936004803603602081101561017d57600080fd5b8101908080359060200190929190505050610731565b604051808260ff1660ff16815260200191505060405180910390f35b610268600480360360208110156101c557600080fd5b81019080803590602001906401000000008111156101e257600080fd5b8201836020820111156101f457600080fd5b8035906020019184600183028401116401000000008311171561021657600080fd5b91908080601f016020809104026020016040519081016040528093929190818152602001838380828437600081840152601f19601f820116905080830192505050505050509192919290505050610751565b6040518080602001828103825283818151815260200191508051906020019060200280838360005b838110156102ab578082015181840152602081019050610290565b505050509050019250505060405180910390f35b610378600480360360208110156102d557600080fd5b81019080803590602001906401000000008111156102f257600080fd5b82018360208201111561030457600080fd5b8035906020019184600183028401116401000000008311171561032657600080fd5b91908080601f016020809104026020016040519081016040528093929190818152602001838380828437600081840152601f19601f8201169050808301925050505050505091929192905050506108e6565b005b6104336004803603602081101561039057600080fd5b81019080803590602001906401000000008111156103ad57600080fd5b8201836020820111156103bf57600080fd5b803590602001918460018302840111640100000000831117156103e157600080fd5b91908080601f016020809104026020016040519081016040528093929190818152602001838380828437600081840152601f19601f820116905080830192505050505050509192919290505050610b81565b604051808215151515815260200191505060405180910390f35b6104796004803603602081101561046357600080fd5b8101908080359060200190929190505050610c74565b6040518083151515158152602001821515151581526020019250505060405180910390f35b610557600480360360208110156104b457600080fd5b81019080803590602001906401000000008111156104d157600080fd5b8201836020820111156104e357600080fd5b8035906020019184600183028401116401000000008311171561050557600080fd5b91908080601f016020809104026020016040519081016040528093929190818152602001838380828437600081840152601f19601f820116905080830192505050505050509192919290505050610cb2565b604051808215151515815260200191505060405180910390f35b61062a6004803603602081101561058757600080fd5b81019080803590602001906401000000008111156105a457600080fd5b8201836020820111156105b657600080fd5b803590602001918460018302840111640100000000831117156105d857600080fd5b91908080601f016020809104026020016040519081016040528093929190818152602001838380828437600081840152601f19601f820116905080830192505050505050509192919290505050610d77565b005b6106586004803603602081101561064257600080fd5b810190808035906020019092919050505061108a565b604051808260ff1660ff16815260200191505060405180910390f35b600080826040516020018080602001828103825283818151815260200191508051906020019080838360005b838110156106bb5780820151818401526020810190506106a0565b50505050905090810190601f1680156106e85780820380516001836020036101000a031916815260200191505b50925050506040516020818303038152906040528051906020012090506001600082815260200190815260200160002060009054906101000a900460ff1660ff16915050919050565b60016020528060005260406000206000915054906101000a900460ff1681565b60606000826040516020018080602001828103825283818151815260200191508051906020019080838360005b8381101561079957808201518184015260208101905061077e565b50505050905090810190601f1680156107c65780820380516001836020036101000a031916815260200191505b509250505060405160208183030381529060405280519060200120905060008082815260200190815260200160002060010160009054906101000a900460ff16156108ac576000808281526020019081526020016000206000018054806020026020016040519081016040528092919081815260200182805480156108a057602002820191906000526020600020905b8160009054906101000a900473ffffffffffffffffffffffffffffffffffffffff1673ffffffffffffffffffffffffffffffffffffffff1681526020019060010190808311610856575b505050505091506108e0565b60006040519080825280602002602001820160405280156108dc5781602001602082028038833980820191505090505b5091505b50919050565b6000816040516020018080602001828103825283818151815260200191508051906020019080838360005b8381101561092c578082015181840152602081019050610911565b50505050905090810190601f1680156109595780820380516001836020036101000a031916815260200191505b5092505050604051602081830303815290604052805190602001209050600180600083815260200190815260200160002060009054906101000a900460ff16016001600083815260200190815260200160002060006101000a81548160ff021916908360ff160217905550600180600083815260200190815260200160002060009054906101000a900460ff1660ff161415610a8c577f5a0350e6005359f81105463a02b2227e79325d5d7676660c19b52bb960bc09ef826040518080602001828103825283818151815260200191508051906020019080838360005b83811015610a51578082015181840152602081019050610a36565b50505050905090810190601f168015610a7e5780820380516001836020036101000a031916815260200191505b509250505060405180910390a15b6000823360405160200180806020018373ffffffffffffffffffffffffffffffffffffffff1673ffffffffffffffffffffffffffffffffffffffff168152602001828103825284818151815260200191508051906020019080838360005b83811015610b05578082015181840152602081019050610aea565b50505050905090810190601f168015610b325780820380516001836020036101000a031916815260200191505b509350505050604051602081830303815290604052805190602001209050600280600083815260200190815260200160002060006101000a81548160ff021916908360ff160217905550505050565b600080823360405160200180806020018373ffffffffffffffffffffffffffffffffffffffff1673ffffffffffffffffffffffffffffffffffffffff168152602001828103825284818151815260200191508051906020019080838360005b83811015610bfb578082015181840152602081019050610be0565b50505050905090810190601f168015610c285780820380516001836020036101000a031916815260200191505b509350505050604051602081830303815290604052805190602001209050600280600083815260200190815260200160002060009054906101000a900460ff1660ff1614915050919050565b60006020528060005260406000206000915090508060010160009054906101000a900460ff16908060010160019054906101000a900460ff16905082565b600080826040516020018080602001828103825283818151815260200191508051906020019080838360005b83811015610cf9578082015181840152602081019050610cde565b50505050905090810190601f168015610d265780820380516001836020036101000a031916815260200191505b509250505060405160208183030381529060405280519060200120905060008082815260200190815260200160002060010160009054906101000a900460ff1680610d6f575060005b915050919050565b6000816040516020018080602001828103825283818151815260200191508051906020019080838360005b83811015610dbd578082015181840152602081019050610da2565b50505050905090810190601f168015610dea5780820380516001836020036101000a031916815260200191505b509250505060405160208183030381529060405280519060200120905060008082815260200190815260200160002060010160009054906101000a900460ff1615610ead576000808281526020019081526020016000206000013390806001815401808255809150509060018203906000526020600020016000909192909190916101000a81548173ffffffffffffffffffffffffffffffffffffffff021916908373ffffffffffffffffffffffffffffffffffffffff16021790555050611086565b60405180606001604052806000604051908082528060200260200182016040528015610ee85781602001602082028038833980820191505090505b508152602001600115158152602001600015158152506000808381526020019081526020016000206000820151816000019080519060200190610f2c9291906110aa565b5060208201518160010160006101000a81548160ff02191690831515021790555060408201518160010160016101000a81548160ff0219169083151502179055509050506000808281526020019081526020016000206000013390806001815401808255809150509060018203906000526020600020016000909192909190916101000a81548173ffffffffffffffffffffffffffffffffffffffff021916908373ffffffffffffffffffffffffffffffffffffffff160217905550507f5a0350e6005359f81105463a02b2227e79325d5d7676660c19b52bb960bc09ef826040518080602001828103825283818151815260200191508051906020019080838360005b8381101561104b578082015181840152602081019050611030565b50505050905090810190601f1680156110785780820380516001836020036101000a031916815260200191505b509250505060405180910390a15b5050565b60026020528060005260406000206000915054906101000a900460ff1681565b828054828255906000526020600020908101928215611123579160200282015b828111156111225782518260006101000a81548173ffffffffffffffffffffffffffffffffffffffff021916908373ffffffffffffffffffffffffffffffffffffffff160217905550916020019190600101906110ca565b5b5090506111309190611134565b5090565b61117491905b8082111561117057600081816101000a81549073ffffffffffffffffffffffffffffffffffffffff02191690555060010161113a565b5090565b9056fea165627a7a7230582011d5a35df1e9593058f7af38bcb4c1b71b3d8c98465abb0d42fb1f212f1cebcd0029",
  "source": "pragma solidity ^0.5.8;\n\ncontract Meeting {\n\n  struct EventStruct {\n    address[] rsvps;\n    bool isRegistered;\n    bool isCanceled;\n  }\n\n  mapping(bytes32 => EventStruct) public events;\n\n  mapping(bytes32 => uint8) public meetups;\n  mapping(bytes32 => uint8) public attendees;\n\n  event MeetupCreated(string url);\n\n  function rsvpForEvent(string memory url) public {\n    bytes32 id = keccak256(abi.encode(url));\n\n    if (events[id].isRegistered) {\n      events[id].rsvps.push(msg.sender);\n    } else {\n      events[id] = EventStruct(new address[](0), true, false);\n      events[id].rsvps.push(msg.sender);\n\n      emit MeetupCreated(url);\n    }\n  }\n\n  function getAttendees(string memory url) public view returns (address[] memory attendants) {\n    bytes32 id = keccak256(abi.encode(url));\n\n    if (events[id].isRegistered) {\n      attendants = events[id].rsvps;\n    } else {\n      attendants = new address[](0);\n    }\n  }\n\n  function isRegistered(string memory url) public view returns (bool registered) {\n    bytes32 id = keccak256(abi.encode(url));\n\n    registered = events[id].isRegistered || false;\n  }\n  \n  function naiveAttention(string memory url) public {\n    bytes32 id = keccak256(abi.encode(url));\n\n    meetups[id] = meetups[id] + 1;\n\n    if (meetups[id] == 1) {\n      emit MeetupCreated(url);\n    }\n\n    bytes32 attend = keccak256(abi.encode(url, msg.sender));\n\n    attendees[attend] = 2;\n  }\n\n  function doesAttend(string memory url) public view returns (bool isAttending) {\n    bytes32 attend = keccak256(abi.encode(url, msg.sender));\n    isAttending = attendees[attend] == 2;\n  }\n  \n  function count(string memory url) public view returns (uint users) {\n    bytes32 id = keccak256(abi.encode(url));\n    users = meetups[id];\n  }\n\n}\n",
  "sourcePath": "/Users/sebastian/bounty/Team-21/contracts/contracts/Meeting.sol",
  "compiler": {
    "name": "solc",
    "version": "0.5.8+commit.23d335f2.Emscripten.clang"
  },
  "schemaVersion": "3.0.11",
  "updatedAt": "2019-10-19T21:33:54.225Z",
  "devdoc": {
    "methods": {}
  },
  "userdoc": {
    "methods": {}
  }
}