{
  "contractName": "Meeting",
  "abi": [
    {
      "constant": true,
      "inputs": [
        {
          "name": "",
          "type": "bytes32"
        }
      ],
      "name": "meetups",
      "outputs": [
        {
          "name": "",
          "type": "uint8"
        }
      ],
      "payable": false,
      "stateMutability": "view",
      "type": "function"
    },
    {
      "constant": true,
      "inputs": [
        {
          "name": "",
          "type": "bytes32"
        }
      ],
      "name": "attendees",
      "outputs": [
        {
          "name": "",
          "type": "uint8"
        }
      ],
      "payable": false,
      "stateMutability": "view",
      "type": "function"
    },
    {
      "anonymous": false,
      "inputs": [
        {
          "indexed": false,
          "name": "url",
          "type": "string"
        },
        {
          "indexed": false,
          "name": "cid",
          "type": "bytes"
        }
      ],
      "name": "MeetupCreated",
      "type": "event"
    },
    {
      "anonymous": false,
      "inputs": [
        {
          "indexed": false,
          "name": "url",
          "type": "string"
        },
        {
          "indexed": false,
          "name": "attendee",
          "type": "address"
        }
      ],
      "name": "MeetupRSVPee",
      "type": "event"
    },
    {
      "constant": false,
      "inputs": [
        {
          "name": "url",
          "type": "string"
        },
        {
          "name": "cid",
          "type": "bytes"
        }
      ],
      "name": "rsvpForEvent",
      "outputs": [],
      "payable": false,
      "stateMutability": "nonpayable",
      "type": "function"
    },
    {
      "constant": false,
      "inputs": [
        {
          "name": "url",
          "type": "string"
        }
      ],
      "name": "rsvpForExistingEvent",
      "outputs": [],
      "payable": false,
      "stateMutability": "nonpayable",
      "type": "function"
    },
    {
      "constant": true,
      "inputs": [
        {
          "name": "url",
          "type": "string"
        }
      ],
      "name": "isAttending",
      "outputs": [
        {
          "name": "attending",
          "type": "bool"
        }
      ],
      "payable": false,
      "stateMutability": "view",
      "type": "function"
    },
    {
      "constant": true,
      "inputs": [
        {
          "name": "url",
          "type": "string"
        },
        {
          "name": "identity",
          "type": "address"
        }
      ],
      "name": "isOtherAttending",
      "outputs": [
        {
          "name": "attending",
          "type": "bool"
        }
      ],
      "payable": false,
      "stateMutability": "view",
      "type": "function"
    },
    {
      "constant": true,
      "inputs": [
        {
          "name": "url",
          "type": "string"
        }
      ],
      "name": "isRegistered",
      "outputs": [
        {
          "name": "registered",
          "type": "bool"
        }
      ],
      "payable": false,
      "stateMutability": "view",
      "type": "function"
    },
    {
      "constant": true,
      "inputs": [
        {
          "name": "url",
          "type": "string"
        }
      ],
      "name": "countAttendees",
      "outputs": [
        {
          "name": "users",
          "type": "uint256"
        }
      ],
      "payable": false,
      "stateMutability": "view",
      "type": "function"
    }
  ],
  "bytecode": "0x608060405234801561001057600080fd5b5061104d806100206000396000f3fe608060405234801561001057600080fd5b50600436106100885760003560e01c8063c822d7f01161005b578063c822d7f0146103e9578063ccb066a7146104bc578063dbe54abf14610577578063f56fbf1f1461064a57610088565b80630ead920c1461008d578063293e97f1146100d5578063345ead8a146101a4578063b2c08f49146102f6575b600080fd5b6100b9600480360360208110156100a357600080fd5b8101908080359060200190929190505050610692565b604051808260ff1660ff16815260200191505060405180910390f35b61018e600480360360208110156100eb57600080fd5b810190808035906020019064010000000081111561010857600080fd5b82018360208201111561011a57600080fd5b8035906020019184600183028401116401000000008311171561013c57600080fd5b91908080601f016020809104026020016040519081016040528093929190818152602001838380828437600081840152601f19601f8201169050808301925050505050505091929192905050506106b2565b6040518082815260200191505060405180910390f35b6102f4600480360360408110156101ba57600080fd5b81019080803590602001906401000000008111156101d757600080fd5b8201836020820111156101e957600080fd5b8035906020019184600183028401116401000000008311171561020b57600080fd5b91908080601f016020809104026020016040519081016040528093929190818152602001838380828437600081840152601f19601f8201169050808301925050505050505091929192908035906020019064010000000081111561026e57600080fd5b82018360208201111561028057600080fd5b803590602001918460018302840111640100000000831117156102a257600080fd5b91908080601f016020809104026020016040519081016040528093929190818152602001838380828437600081840152601f19601f82011690508083019250505050505050919291929050505061076e565b005b6103cf6004803603604081101561030c57600080fd5b810190808035906020019064010000000081111561032957600080fd5b82018360208201111561033b57600080fd5b8035906020019184600183028401116401000000008311171561035d57600080fd5b91908080601f016020809104026020016040519081016040528093929190818152602001838380828437600081840152601f19601f820116905080830192505050505050509192919290803573ffffffffffffffffffffffffffffffffffffffff169060200190929190505050610b4c565b604051808215151515815260200191505060405180910390f35b6104a2600480360360208110156103ff57600080fd5b810190808035906020019064010000000081111561041c57600080fd5b82018360208201111561042e57600080fd5b8035906020019184600183028401116401000000008311171561045057600080fd5b91908080601f016020809104026020016040519081016040528093929190818152602001838380828437600081840152601f19601f820116905080830192505050505050509192919290505050610c41565b604051808215151515815260200191505060405180910390f35b610575600480360360208110156104d257600080fd5b81019080803590602001906401000000008111156104ef57600080fd5b82018360208201111561050157600080fd5b8035906020019184600183028401116401000000008311171561052357600080fd5b91908080601f016020809104026020016040519081016040528093929190818152602001838380828437600081840152601f19601f820116905080830192505050505050509192919290505050610d00565b005b6106306004803603602081101561058d57600080fd5b81019080803590602001906401000000008111156105aa57600080fd5b8201836020820111156105bc57600080fd5b803590602001918460018302840111640100000000831117156105de57600080fd5b91908080601f016020809104026020016040519081016040528093929190818152602001838380828437600081840152601f19601f820116905080830192505050505050509192919290505050610fee565b604051808215151515815260200191505060405180910390f35b6106766004803603602081101561066057600080fd5b8101908080359060200190929190505050611001565b604051808260ff1660ff16815260200191505060405180910390f35b60006020528060005260406000206000915054906101000a900460ff1681565b600080826040516020018080602001828103825283818151815260200191508051906020019080838360005b838110156106f95780820151818401526020810190506106de565b50505050905090810190601f1680156107265780820380516001836020036101000a031916815260200191505b509250505060405160208183030381529060405280519060200120905060008082815260200190815260200160002060009054906101000a900460ff1660ff16915050919050565b6000826040516020018080602001828103825283818151815260200191508051906020019080838360005b838110156107b4578082015181840152602081019050610799565b50505050905090810190601f1680156107e15780820380516001836020036101000a031916815260200191505b5092505050604051602081830303815290604052805190602001209050600160008083815260200190815260200160002060009054906101000a900460ff160160008083815260200190815260200160002060006101000a81548160ff021916908360ff160217905550600160008083815260200190815260200160002060009054906101000a900460ff1660ff16111561087b57610985565b7f73778ca5ce1bd43416d5cf6387a7e5a509350e5c56a1b0c4422ecdcf634320dc8383604051808060200180602001838103835285818151815260200191508051906020019080838360005b838110156108e25780820151818401526020810190506108c7565b50505050905090810190601f16801561090f5780820380516001836020036101000a031916815260200191505b50838103825284818151815260200191508051906020019080838360005b8381101561094857808201518184015260208101905061092d565b50505050905090810190601f1680156109755780820380516001836020036101000a031916815260200191505b5094505050505060405180910390a15b6000833360405160200180806020018373ffffffffffffffffffffffffffffffffffffffff1673ffffffffffffffffffffffffffffffffffffffff168152602001828103825284818151815260200191508051906020019080838360005b838110156109fe5780820151818401526020810190506109e3565b50505050905090810190601f168015610a2b5780820380516001836020036101000a031916815260200191505b50935050505060405160208183030381529060405280519060200120905060026001600083815260200190815260200160002060006101000a81548160ff021916908360ff1602179055507f697bb7273cf4c42ca2cdc08f835d784ad2d0ebfb4f7c7483f51b700b9362f4a0843360405180806020018373ffffffffffffffffffffffffffffffffffffffff1673ffffffffffffffffffffffffffffffffffffffff168152602001828103825284818151815260200191508051906020019080838360005b83811015610b0b578082015181840152602081019050610af0565b50505050905090810190601f168015610b385780820380516001836020036101000a031916815260200191505b50935050505060405180910390a150505050565b600080838360405160200180806020018373ffffffffffffffffffffffffffffffffffffffff1673ffffffffffffffffffffffffffffffffffffffff168152602001828103825284818151815260200191508051906020019080838360005b83811015610bc6578082015181840152602081019050610bab565b50505050905090810190601f168015610bf35780820380516001836020036101000a031916815260200191505b50935050505060405160208183030381529060405280519060200120905060026001600083815260200190815260200160002060009054906101000a900460ff1660ff161491505092915050565b600080826040516020018080602001828103825283818151815260200191508051906020019080838360005b83811015610c88578082015181840152602081019050610c6d565b50505050905090810190601f168015610cb55780820380516001836020036101000a031916815260200191505b5092505050604051602081830303815290604052805190602001209050600080600083815260200190815260200160002060009054906101000a900460ff1660ff1611915050919050565b6000816040516020018080602001828103825283818151815260200191508051906020019080838360005b83811015610d46578082015181840152602081019050610d2b565b50505050905090810190601f168015610d735780820380516001836020036101000a031916815260200191505b5092505050604051602081830303815290604052805190602001209050600080600083815260200190815260200160002060009054906101000a900460ff1660ff1611610e28576040517f08c379a00000000000000000000000000000000000000000000000000000000081526004018080602001828103825260208152602001807f6d6565747570206e6565647320746f206265206372656174656420666972737481525060200191505060405180910390fd5b6000823360405160200180806020018373ffffffffffffffffffffffffffffffffffffffff1673ffffffffffffffffffffffffffffffffffffffff168152602001828103825284818151815260200191508051906020019080838360005b83811015610ea1578082015181840152602081019050610e86565b50505050905090810190601f168015610ece5780820380516001836020036101000a031916815260200191505b50935050505060405160208183030381529060405280519060200120905060026001600083815260200190815260200160002060006101000a81548160ff021916908360ff1602179055507f697bb7273cf4c42ca2cdc08f835d784ad2d0ebfb4f7c7483f51b700b9362f4a0833360405180806020018373ffffffffffffffffffffffffffffffffffffffff1673ffffffffffffffffffffffffffffffffffffffff168152602001828103825284818151815260200191508051906020019080838360005b83811015610fae578082015181840152602081019050610f93565b50505050905090810190601f168015610fdb5780820380516001836020036101000a031916815260200191505b50935050505060405180910390a1505050565b6000610ffa8233610b4c565b9050919050565b60016020528060005260406000206000915054906101000a900460ff168156fea165627a7a72305820c007990d6bbf8320284338e79bcec85422b66b0b7a06f02cc62bde8b68ab14a00029",
  "source": "pragma solidity ^0.5.8;\n\ncontract Meeting {\n\n  /*struct EventStruct {\n    address[] rsvps;\n    bytes cid;\n\n    bool isCanceled;\n  }\n\n  mapping(bytes32 => EventStruct) public events;*/\n\n  mapping(bytes32 => uint8) public meetups;\n  mapping(bytes32 => uint8) public attendees;\n\n  event MeetupCreated(string url, bytes cid);\n  event MeetupRSVPee(string url, address attendee);\n\n  function rsvpForEvent(string memory url, bytes memory cid) public {\n    bytes32 id = keccak256(abi.encode(url));\n\n    meetups[id] = meetups[id] + 1; // useful for count and cheap existence check\n\n    if (meetups[id] > 1) {\n      // events[id].rsvps.push(msg.sender);\n    } else {\n      // events[id] = EventStruct(new address[](0), cid, false); // useful for detail information\n      // events[id].rsvps.push(msg.sender);\n\n      emit MeetupCreated(url, cid);\n    }\n\n    bytes32 attend = keccak256(abi.encode(url, msg.sender));\n    attendees[attend] = 2; // code for attending\n\n    emit MeetupRSVPee(url, msg.sender);\n  }\n\n  function rsvpForExistingEvent(string memory url) public {\n    bytes32 id = keccak256(abi.encode(url));\n    require(meetups[id] > 0, \"meetup needs to be created first\");\n\n    // events[id].rsvps.push(msg.sender);\n\n    bytes32 attend = keccak256(abi.encode(url, msg.sender));\n    attendees[attend] = 2;\n\n    emit MeetupRSVPee(url, msg.sender);\n  }\n\n  function isAttending(string memory url) public view returns (bool attending) {\n    attending = isOtherAttending(url, msg.sender);\n  }\n\n  function isOtherAttending(string memory url, address identity) public view returns (bool attending) {\n    bytes32 attend = keccak256(abi.encode(url, identity));\n    attending = attendees[attend] == 2;\n  }\n\n  /*function getAttendees(bytes32 id) public view returns (address[] memory attendants) {\n    if (meetups[id] > 0) {\n      attendants = events[id].rsvps;\n    } else {\n      attendants = new address[](0);\n    }\n  }*/\n\n  /*function getAttendees(string memory url) public view returns (address[] memory attendants) {\n    bytes32 id = keccak256(abi.encode(url));\n    attendants = getAttendees(id);\n  }*/\n\n  function isRegistered(string memory url) public view returns (bool registered) {\n    bytes32 id = keccak256(abi.encode(url));\n    registered = meetups[id] > 0;\n  }\n\n  function countAttendees(string memory url) public view returns (uint users) {\n    bytes32 id = keccak256(abi.encode(url));\n    users = meetups[id];\n  }\n}\n",
  "sourcePath": "/Users/sebastian/bounty/Team-21/contracts/contracts/Meeting.sol",
  "compiler": {
    "name": "solc",
    "version": "0.5.8+commit.23d335f2.Emscripten.clang"
  },
  "schemaVersion": "3.0.11",
  "updatedAt": "2019-10-20T12:43:01.726Z",
  "devdoc": {
    "methods": {}
  },
  "userdoc": {
    "methods": {}
  }
}