{
  "contractName": "Meeting",
  "abi": [
    {
      "constant": true,
      "inputs": [
        {
          "name": "",
          "type": "bytes32"
        }
      ],
      "name": "events",
      "outputs": [
        {
          "name": "isRegistered",
          "type": "bool"
        }
      ],
      "payable": false,
      "stateMutability": "view",
      "type": "function"
    },
    {
      "anonymous": false,
      "inputs": [
        {
          "indexed": false,
          "name": "url",
          "type": "string"
        }
      ],
      "name": "MeetupCreated",
      "type": "event"
    },
    {
      "constant": false,
      "inputs": [
        {
          "name": "url",
          "type": "string"
        }
      ],
      "name": "rsvpForEvent",
      "outputs": [],
      "payable": false,
      "stateMutability": "nonpayable",
      "type": "function"
    }
  ],
  "bytecode": "0x608060405234801561001057600080fd5b5061054a806100206000396000f3fe608060405234801561001057600080fd5b50600436106100365760003560e01c8063bfdc4a611461003b578063ee373b6414610081575b600080fd5b6100676004803603602081101561005157600080fd5b810190808035906020019092919050505061013c565b604051808215151515815260200191505060405180910390f35b61013a6004803603602081101561009757600080fd5b81019080803590602001906401000000008111156100b457600080fd5b8201836020820111156100c657600080fd5b803590602001918460018302840111640100000000831117156100e857600080fd5b91908080601f016020809104026020016040519081016040528093929190818152602001838380828437600081840152601f19601f820116905080830192505050505050509192919290505050610167565b005b60006020528060005260406000206000915090508060010160009054906101000a900460ff16905081565b6000816040516020018080602001828103825283818151815260200191508051906020019080838360005b838110156101ad578082015181840152602081019050610192565b50505050905090810190601f1680156101da5780820380516001836020036101000a031916815260200191505b509250505060405160208183030381529060405280519060200120905060008082815260200190815260200160002060010160009054906101000a900460ff161561029d576000808281526020019081526020016000206000013390806001815401808255809150509060018203906000526020600020016000909192909190916101000a81548173ffffffffffffffffffffffffffffffffffffffff021916908373ffffffffffffffffffffffffffffffffffffffff1602179055505061044d565b604051806040016040528060006040519080825280602002602001820160405280156102d85781602001602082028038833980820191505090505b508152602001600115158152506000808381526020019081526020016000206000820151816000019080519060200190610313929190610451565b5060208201518160010160006101000a81548160ff0219169083151502179055509050506000808281526020019081526020016000206000013390806001815401808255809150509060018203906000526020600020016000909192909190916101000a81548173ffffffffffffffffffffffffffffffffffffffff021916908373ffffffffffffffffffffffffffffffffffffffff160217905550507f5a0350e6005359f81105463a02b2227e79325d5d7676660c19b52bb960bc09ef826040518080602001828103825283818151815260200191508051906020019080838360005b838110156104125780820151818401526020810190506103f7565b50505050905090810190601f16801561043f5780820380516001836020036101000a031916815260200191505b509250505060405180910390a15b5050565b8280548282559060005260206000209081019282156104ca579160200282015b828111156104c95782518260006101000a81548173ffffffffffffffffffffffffffffffffffffffff021916908373ffffffffffffffffffffffffffffffffffffffff16021790555091602001919060010190610471565b5b5090506104d791906104db565b5090565b61051b91905b8082111561051757600081816101000a81549073ffffffffffffffffffffffffffffffffffffffff0219169055506001016104e1565b5090565b9056fea165627a7a72305820e708936904af14171efb8f647397525a9fd7c65108ecfa88ac2211c5ebd14e870029",
  "source": "pragma solidity ^0.5.0;\n\ncontract Meeting {\n\n  struct EventStruct {\n    address[] rsvps;\n    bool isRegistered;\n  }\n\n  mapping(bytes32 => EventStruct) public events;\n\n  event MeetupCreated(string url);\n\n  function rsvpForEvent(string memory url) public {\n    bytes32 id = keccak256(abi.encode(url));\n\n    if (events[id].isRegistered) {\n      events[id].rsvps.push(msg.sender);\n    } else {\n      events[id] = EventStruct(new address[](0), true);\n      events[id].rsvps.push(msg.sender);\n\n      emit MeetupCreated(url);\n    }\n  }\n}\n",
  "sourcePath": "/Users/sebastian/bounty/Team-21/contracts/contracts/Meeting.sol",
  "compiler": {
    "name": "solc",
    "version": "0.5.8+commit.23d335f2.Emscripten.clang"
  },
  "schemaVersion": "3.0.11",
  "updatedAt": "2019-10-19T17:17:08.724Z",
  "devdoc": {
    "methods": {}
  },
  "userdoc": {
    "methods": {}
  }
}