{
  "contractName": "Simple",
  "abi": [
    {
      "constant": true,
      "inputs": [
        {
          "name": "",
          "type": "address"
        }
      ],
      "name": "status",
      "outputs": [
        {
          "name": "",
          "type": "uint8"
        }
      ],
      "payable": false,
      "stateMutability": "view",
      "type": "function"
    },
    {
      "constant": false,
      "inputs": [
        {
          "name": "state",
          "type": "uint8"
        }
      ],
      "name": "setStatus",
      "outputs": [],
      "payable": false,
      "stateMutability": "nonpayable",
      "type": "function"
    },
    {
      "constant": true,
      "inputs": [],
      "name": "getStatus",
      "outputs": [
        {
          "name": "state",
          "type": "uint8"
        }
      ],
      "payable": false,
      "stateMutability": "view",
      "type": "function"
    }
  ],
  "bytecode": "0x608060405234801561001057600080fd5b506101f2806100206000396000f3fe608060405234801561001057600080fd5b50600436106100415760003560e01c80632e49d78b146100465780634e69d56014610077578063645b8b1b1461009b575b600080fd5b6100756004803603602081101561005c57600080fd5b81019080803560ff1690602001909291905050506100f9565b005b61007f610153565b604051808260ff1660ff16815260200191505060405180910390f35b6100dd600480360360208110156100b157600080fd5b81019080803573ffffffffffffffffffffffffffffffffffffffff1690602001909291905050506101a6565b604051808260ff1660ff16815260200191505060405180910390f35b806000803373ffffffffffffffffffffffffffffffffffffffff1673ffffffffffffffffffffffffffffffffffffffff16815260200190815260200160002060006101000a81548160ff021916908360ff16021790555050565b60008060003373ffffffffffffffffffffffffffffffffffffffff1673ffffffffffffffffffffffffffffffffffffffff16815260200190815260200160002060009054906101000a900460ff16905090565b60006020528060005260406000206000915054906101000a900460ff168156fea165627a7a7230582035ebd1a99db50fc02df0b6878d20be11437a3f11f8443fb2b73cb63f9e1a0b830029",
  "source": "pragma solidity ^0.5.8;\n\ncontract Simple {\n  mapping(address => uint8) public status;\n\n  function setStatus(uint8 state) public {\n    status[msg.sender] = state;\n  }\n\n  function getStatus() public view returns (uint8 state) {\n    state = status[msg.sender];\n  }\n}\n",
  "sourcePath": "/Users/sebastian/bounty/Team-21/contracts/contracts/Simple.sol",
  "compiler": {
    "name": "solc",
    "version": "0.5.8+commit.23d335f2.Emscripten.clang"
  },
  "schemaVersion": "3.0.11",
  "updatedAt": "2019-10-19T21:35:01.027Z",
  "devdoc": {
    "methods": {}
  },
  "userdoc": {
    "methods": {}
  }
}